:02000004080AE8
:1000000000000A08140F0A08000006000600050197
:0800100004021F0C00000000B7
:04001800B00C0A0816
:10001C0009480A4908B5884205D0094A824202D0EB
:10002C00121A00F0F3FD0748074A0021121A00F0DB
:10003C00FBFD064808BD00BF00000020840E0A0826
:10004C0068000020680000202805002028050020FA
:10005C0070B500F07BFD0025054E064CA41BA408D2
:10006C00A54200D170BD56F8043B98470135F7E71F
:10007C00540E0A08740E0A0800F032B808B500F0E5
:10008C0030F8BDE8084000F019BD00F093B90078D5
:10009C00B0FA80F040097047012303707047704735
:1000AC00002210B50446044B114640F8043B00F006
:1000BC00D9F8204610BD00BFCC0C0A0810B5044678
:1000CC00FFF7EEFF2046202100F08FFD204610BDEB
:1000DC0010B50446006808B100F06CF9204610BD5C
:1000EC00704710B500228AB01421022000F0D4F819
:1000FC0001241E220346CDE900244FF47F01022285
:10010C0002A800F0E5F92146002203A800F0AAF8A5
:10011C0040F6B83000F066F9002203A8114600F052
:10012C00A1F84FF47A7000F05DF902A8FFF7B8FF60
:10013C000AB010BD002310B5074C0320C4E90033EE
:10014C00A3F58033A36000F097F82046BDE810407B
:10015C00024A034900F044BD6C00002068000020F6
:10016C00DD000A0808B5024B1B685B68019308BDEB
:10017C009C01060808B5024B1B685B69019308BD1E
:10018C009C01060808B5024B1B689B69019308BDCE
:10019C00C401060808B5024B1B685B6A019308BDD5
:1001AC00C401060808B5024B1B689B6A019308BD85
:1001BC00C401060808B5024B1B68DB6A019308BD35
:1001CC00C401060808B5024B1B681B6B019308BDE4
:1001DC00C401060808B5024B1B685B6B019308BD94
:1001EC00C401060808B5024B1B681B6C019308BDC3
:1001FC00C401060808B5024B1B681B68019308BDB7
:10020C00D801060808B5024B1B681B69019308BD91
:10021C00D801060808B5024B1B685B69019308BD41
:10022C00D801060808B5024B1B689B69019308BDF1
:10023C00D801060808B5024B1B68DB69019308BDA1
:10024C00D801060808B5024B1B681B6A019308BD50
:10025C00D801060808B5024B1B689B6C019308BDBE
:10026C00C001060808B5034B1B68D3F88030019316
:10027C0008BD0000A801020808B5024B1B685B68AA
:10028C00019308BDA401060808B5024B1B685B6905
:10029C00019308BDA401060808B5034B1B68D3F8ED
:1002AC008430019308BD0000A401060808B5034B77
:1002BC001B68D3F89030019308BD0000A401060818
:1002CC0008B5034B1B68D3F89C30019308BD0000A4
:1002DC00A401060808B5024B1B68DB6B019308BD33
:1002EC00CC01060808B5024B1B685B68019308BD7E
:1002FC00C801060808B5024B1B689B68019308BD32
:10030C00C801060808B5024B1B68DB68019308BDE1
:10031C00C801060808B5024B1B681B69019308BD90
:10032C00C801060808B5024B1B685B69019308BD40
:10033C00C801060808B5024B1B689B69019308BDF0
:10034C00C801060808B5024B1B68DB69019308BDA0
:10035C00C801060808B5024B1B681B6A019308BD4F
:10036C00C801060808B5024B1B681B6B019308BD3E
:10037C00C801060808B5024B1B685B6B019308BDEE
:10038C00C801060808B5024B1B681B6C019308BD1D
:10039C00C801060808B5024B1B685B6C019308BDCD
:1003AC00C801060808B5024B1B681B68019308BD01
:1003BC00A001060808B5024B1B685B68019308BDD9
:1003CC00A001060808B5024B1B681B6C019308BD05
:1003DC00A001060808B5024B1B685B6C019308BDB5
:1003EC00A00106080021FFF74FBF10B58368044633
:1003FC0013B1032201469847204610BD7047F8B54B
:10040C000E46002400F10807051D17F8011D0A22ED
:10041C00304600F01EF9AF42044401D12046F8BD2D
:10042C00002CF2D02E21304600F010F90444ECE7F9
:10043C0010B50446182100F0D8FB204610BD000072
:10044C0010B50446044B1122002140F8043B00F087
:10045C00EBFB204610BD00BFE00C0A080346074A20
:10046C0010B543F8042B01F1100251F8044B9142E2
:10047C0043F8044BF9D10A781A7010BDE00C0A0845
:10048C00024AC0E90021042202757047E00C0A08F8
:10049C0010B59DF8084044EA0324042344EA0244BE
:1004AC0044EA01644460037510BD000013B5044CAC
:1004BC0004609DF810400094FFF7EAFF02B010BDF5
:1004CC00E00C0A0802460B6808469B681146184760
:1004DC0070B50E4C002504601C24C0E901459DF844
:1004EC0014409DF8106004F0030444EA8604E4B25E
:1004FC000474427485744161427CC5600F2A0ABF42
:10050C00034B0383C0E9063070BD00BFCC0C0A0856
:10051C00D1040A08014B024A1A6070477800002087
:10052C00EC0C0A08002340681A46FFF7DBBE0022D9
:10053C0002214068FFF7E6BE002240681146FFF733
:10054C00D9BE002240681146FFF7E4BE0023406884
:10055C001A461946FFF7E6BE002340681A461946AC
:10056C00FFF7E8BE00214068FFF70CBF0021406890
:10057C00FFF710BF0022406881F00101FFF7E2BED7
:10058C0000224068FFF7EEBE002240681146FFF7DC
:10059C00F1BE002240681146FFF7DCBE70B515466F
:1005AC008EB0044608A8FFF74BFF1122002103A8C8
:1005BC0000F03AFB0026284600F06CFB0A4B009634
:1005CC0081B25B68284603AAFFF744FE30B131467E
:1005DC002046FFF755FF20460EB070BD204603A9FC
:1005EC00FFF73CFFF7E700BFFC040020024B034A77
:1005FC001A6000225A6070477C000020F80C0A0830
:10060C00F8B506460D4600248F18BD420CD0336851
:10061C0030469B6815F8011B9847031E01DB1C44F0
:10062C00F3E7002C08BF1C462046F8BD70B5054604
:10063C000C46084649B100F02DFB2B6802462146BA
:10064C002846BDE87040DB68184770BD03689B689E
:10065C0018470023012A98BF0A2230B58BB00C46EC
:10066C008DF8243009A92546B4FBF2F404FB12538F
:10067C00DBB2092B94BF30333733DBB2AA4201F81B
:10068C00013DF0D9FFF7D2FF0BB030BD10B50446D9
:10069C00FFF7ABFE204610BD00230348034A044974
:1006AC00836000F09DBA00BF840000206800002029
:1006BC0099060A080222002010B5084B084C1A6053
:1006CC00084BC4E90000A360FFF7D6FD2046BDE847
:1006DC001040054A054900F083BA00BFA000002075
:1006EC00940000200000FFFF68000020DD000A08D5
:1006FC00024B1A68024B1A60704700BF00000020C2
:10070C00A400002070474174704708B5007CFFF7C7
:10071C0069FD20EAE07008BD08B5007CFFF742FDDA
:10072C0020EAE07008BD08B5007CFFF74BFD40EAFD
:10073C00E07008BD08B5007CFFF73CFD40EAE070B6
:10074C0008BD007CFFF746BD70B5467C04460D46DF
:10075C002EB12946207CBDE87040FFF71BBD007C04
:10076C00FFF740FD0028F4DC304670BD10B50446A0
:10077C00142100F03AFA204610BD00004FF0000C96
:10078C0010B50446084611464FF47A72C4E901C20A
:10079C00044A20742260012262741A46FFF7F2FCAC
:1007AC00204610BD500D0A0838B50D4D2978BFF301
:1007BC005B8F11F0010411D12846FFF768FC68B17A
:1007CC002146084A084B0948FFF7D8FF2846FFF78F
:1007DC0063FC074A0749054800F002FA034838BD94
:1007EC00A8000020AC00002030010020B401002043
:1007FC006800002011070A0841747047704708B55B
:10080C000021007CFFF70EFD40EAE07008BD08B542
:10081C000121007CFFF706FD40EAE07008BD08B539
:10082C00007CFFF7F7FC20EAE07008BD08B5007CFF
:10083C00FFF7E8FC20EAE07008BD38B50446007C00
:10084C000D46FFF7E7FC002801DC607C28B1294647
:10085C00207CFFF7EFFC20EAE07038BD007CFFF74E
:10086C00F1BC10B50446142100F0BFF9204610BDB0
:10087C0010B54FF47A73044608460021C4E90113FD
:10088C00044B20742360012311466374FFF7B2FC00
:10089C00204610BD800D0A0810B504461422002114
:1008AC0000F0C2F9054B20466360054BE36040F253
:1008BC00011323818123238210BD00BFF801002086
:1008CC00F902002030B50F4D87B001A8FFF7E4FF07
:1008DC002978BFF35B8F11F0010410D12846FFF784
:1008EC00D6FB60B1214601AA0748FFF7C1FF284695
:1008FC00FFF7D2FB054A0649034800F071F902489C
:10090C0007B030BDC8010020D001002068000020D5
:10091C0009080A0810B504461422002100F084F9D5
:10092C00054B20466360054BE36040F201132381C5
:10093C008123238210BD00BF7A0300207B0400209A
:10094C0010B50F4C86B001A8FFF7E4FF2378BFF376
:10095C005B8FDB0710D42046FFF799FB60B10121B8
:10096C0001AA0848FFF784FF2046FFF795FB064ACB
:10097C000649044800F034F9024806B010BD00BF27
:10098C00CC010020E40100206800002009080A08BE
:10099C00002240681146FFF7BDBCF0B5154689B082
:1009AC0011220E460446002103A800F03DF928460A
:1009BC0000F070F9002781B273682846009703AAEB
:1009CC00FFF748FC30B139462046FFF759FD204669
:1009DC0009B0F0BD204603A9FFF740FDF7E7002260
:1009EC0040681146FFF7B6BC002240681146FFF77D
:1009FC00C1BC00224068FFF7B5BC0022406881F002
:100A0C000101FFF79FBC002340681A461946FFF707
:100A1C0091BC002340681A461946FFF783BC00229C
:100A2C0040681146FFF766BC002202214068FFF7C0
:100A3C0069BC002340681A46FFF754BC0422024BE1
:100A4C005A60024A1A607047FC040020B00D0A0874
:100A5C00014B1860704700BF0400002008B5134B11
:100A6C0043B1FFF72FFF03681B699847002801DD8E
:100A7C00AFF300800E4B43B1FFF796FE03681B6982
:100A8C009847002801DDAFF300800A4B0BB1AFF3A0
:100A9C000080094B43B1FFF753FF03681B6998476C
:100AAC00002801DDAFF3008008BD00BF000000008E
:100ABC0000000000000000000000000008B5FFF777
:100ACC00CDFFFFF757FB014B186008BD0C0500204C
:100ADC000548064A08B5121A054900F097F8054B67
:100AEC00054A1A6008BD00BF0040024004400240A5
:100AFC00800E0A08004002401E1C279A002307B5EE
:100B0C001A466FF077010093FFF7DAFB03B05DF83C
:100B1C0004FB000007B543880A2B08D0502B0BD1DF
:100B2C00094B1B684BB103B05DF804EB1847FFF79A
:100B3C00E5FF03B05DF804FB00231A466FF0770164
:100B4C000093FFF7BDFBF4E708050020002110B56A
:100B5C001148FFF73FFC114B1A68114B9A420CBF1E
:100B6C00012200220F4B1A7001D0FFF7B1FFFFF7E3
:100B7C00F9FA044600F060F80B4B13B12046AFF3C2
:100B8C00008000210848FFF7A5FBBDE810400021BC
:100B9C000648FFF78BBB00BF5D0A0A080040024005
:100BAC001E1C279A0405002000000000210B0A08D7
:100BBC00002313B5074C1A46194620460093FFF73D
:100BCC0075FC2046044A054902B0BDE8104000F00F
:100BDC0007B800BF100500206800002009040A08AF
:100BEC000B460146184600F003B8FFF74EBA00005A
:100BFC0010B504460448134620B10A46022021468B
:100C0C00AFF3008010BD00BF000000000A44914209
:100C1C0000F1FF3300D1704710B511F8014B914230
:100C2C0003F8014FF9D110BD03460244934200D1A1
:100C3C00704703F8011BF9E738B5104B04461D68E3
:100C4C00AB6BB3B91820FFF7ADFB0246A86320B914
:100C5C0042210B4B0B48FFF7B5FB0B490B4BC0E983
:100C6C0000130B4B002183600B2383810120C2E90D
:100C7C0004010022AB6B1C615A6138BD04000020DA
:100C8C00E40D0A08FB0D0A080E33CDAB34126DE6E9
:100C9C00ECDE0500034613F8012B002AFBD1181AD1
:100CAC00013870471D000A085D000A0885000A0813
:100CBC0089000A080000000000000000000000008D
:100CCC00AD000A08C9000A08AB000A0800000000C1
:100CDC00000000000B040A0809040A083D040A0875
:100CEC0061707000000000000000000031050A086F
:100CFC003B050A0845050A084F050A0859050A0864
:100D0C0065050A0871050A0879050A0881050A08AB
:100D1C008D050A0895050A089F050A08A9050A0801
:100D2C0025592D256D2D25645425483A254D3A25F8
:100D3C0053257A0061736374696D650000000000CF
:100D4C000000000011070A0879070A0855070A086D
:100D5C000D060A0825070A0841070A0833070A087E
:100D6C004F070A0813070A0817070A0800000000B3
:100D7C000000000009080A086F080A0847080A085A
:100D8C000D060A0839080A080B080A081B080A0885
:100D9C0069080A082B080A0805080A080000000060
:100DAC00000000003F0A0A08350A0A082B0A0A0844
:100DBC009D090A081F0A0A08130A0A0871050A087D
:100DCC0079050A08070A0A08FF090A08F5090A083A
:100DDC00EB090A08A7090A085245454E54206D61D3
:100DEC006C6C6F6320737563636565646564002F59
:100DFC00746D702F6A656E6B696E732D4743432D4E
:100E0C0031302D706970656C696E652D34385F32C8
:100E1C00303230313132345F313630363138303671
:100E2C0033392F7372632F6E65776C69622F6E6521
:100E3C00776C69622F6C6962632F7374646C69627E
:100E4C002F72616E642E630041010A0821050A08A5
:100E5C00F9050A08A5060A08C1060A08FD060A08CB
:100E6C00490A0A08BD0B0A08000000000000000037
:040E7C000000000072
:040E8000000000006E
:100E8400400D0A08080000200000000000000000D7
:100E9400000000000000000000000000000000004E
:100EA400000000000000000000000000000000003E
:100EB400000000000000000000000000000000002E
:100EC400000000000000000000000000000000001E
:100ED400000000000000000000000000000000000E
:080EE400000000000000000006
:100EEC00FFFFFFFF00000102030405060708090AC3
:100EFC000B0C0D0E0F101112131415161718191ABE
:080F0C001B1C1D1E1F20280004
:040F140078563412C5
:04000005080A001CC9
:00000001FF
